:020000040804EE
:100000000000082409C9040855C90408756F0408CC
:100010007B6F0408816F0408876F040800000000EC
:10002000000000000000000000000000AD1D0408FA
:1000300055C9040800000000471E0408571E0408A4
:1000400055C9040855C9040855C9040855C9040808
:1000500055C9040855C9040855C9040855C90408F8
:1000600055C9040855C9040855C9040855C90408E8
:1000700055C9040855C9040855C9040855C90408D8
:1000800055C9040855C9040855C9040829D40408E9
:1000900039D4040835D4040845D4040855C90408E3
:1000A00055C9040855C9040855C9040855C90408A8
:1000B00055C9040855C9040855C9040855C9040898
:1000C00055C9040855C9040855C9040855C9040888
:1000D00055C9040855C9040855C9040855C9040878
:1000E00055C9040855C904080000000055C9040892
:1000F00055C9040855C9040855C9040855C9040858
:1001000055C9040855C9040855C9040855C9040847
:1001100055C9040855C9040855C9040855C9040837
:1001200055C9040855C9040855C9040855C9040827
:1001300055C9040855C9040855C9040855C9040817
:1001400055C9040855C9040800000000000000005B
:1001500055C9040855C9040855C9040855C90408F7
:1001600055C9040855C9040855C9040855C90408E7
:1001700055C9040855C9040855C904080000000001
:1001800055C9040855C9040855C9040855C90408C7
:1001900055C9040855C9040855C9040855C90408B7
:1001A00055C9040855C9040855C9040855C90408A7
:1001B00055C9040855C9040855C9040855C9040897
:1001C00055C9040855C9040855C9040855C9040887
:1001D00055C9040855C9040855C9040855C9040877
:1001E00055C9040855C9040855C9040855C9040867
:1001F00055C9040855C9040855C9040855C9040857
:1002000055C9040855C9040855C9040855C9040846
:1002100055C9040855C9040855C9040855C9040836
:1002200055C9040855C9040855C9040855C9040826
:1002300095C6040805C9040855C9040855C9040829
:1002400055C9040855C9040855C9040855C9040806
:1002500055C9040855C9040855C9040855C90408F6
:1002600055C9040855C9040855C9040855C90408E6
:1002700055C9040855C9040855C9040855C90408D6
:1002800055C9040855C9040855C9040800000000F0
:1002900055C9040855C9040810B5054C237833B96D
:1002A000044B13B10448AFF300800123237010BD49
:1002B000E0170024000000005476050808B5034B41
:1002C0001BB103490348AFF3008008BD00000000E4
:1002D000E417002454760508154B002B08BF134B78
:1002E0009D46A3F5803A00218B460F461348144AD9
:1002F000121A10F06DF90F4B002B00D098470E4BDF
:10030000002B00D098470020002104000D000D486C
:10031000002802D00C4807F087FC0FF05BFC20009F
:10032000290003F0BBFD07F097FE00BF00000800A6
:100330000000082400000000F93D0408E017002434
:1003400038C00024297C04080000000001210D2091
:1003500001F0B4BC08B501210D2001F0EDFC4FF413
:100360007A7001F07BFC0D20002101F0E5FC4FF4D8
:100370007A70BDE8084001F071BC30B5A1F11004FD
:10038000002500F00F02CD7302390009D3B2092A0B
:10039000CCBF373330330B748C42F2D130BDC22026
:1003A0007047000008B5084A0121084B18201A6060
:1003B00001F084FC0121182001F0BEFC044B43F243
:1003C000D2021A6008BD00BF00400058FC1700248C
:1003D0000040005210B5044608F06CFA2146FFF7C1
:1003E000CCFF08F06DFA04F11001FFF7C6FF08F02A
:1003F0006DFA04F12001FFF7C0FF302010BD0000AE
:1004000008B54DF65972002107480AF0C3FEBFF344
:100410004F8F0649064BCA6802F4E0621343CB6073
:10042000BFF34F8F00BFFDE7FC17002400ED00E095
:100430000400FA0570470B6803604B6843608B68E3
:1004400083607047C3680BB19B68184770470020F2
:10045000704770B590F8383105461446F3B9036813
:10046000DB69984704F4706304F00F02B3F5407F32
:1004700004F0F0030CBF07210821302B0CBF02232E
:100480000123012A08D0901E42424241A869BDE8DA
:100490007040006804F053B80222F7E770BD10B551
:1004A00090F8383104462BB9A369186804F088F82D
:1004B0000028F9D010BD38B590F838510446A5B9D8
:1004C00083695BB1186848B10368DB689847A36922
:1004D00004211D60A06907F017FEA5610023C4F880
:1004E0002831C4F82C31C4F8303138BD13B590F838
:1004F000383104466BBBA369186804F037F840B381
:1005000006F0C2FFA36901220DF107011868036814
:100510005B699847D4F83031B3F5807F16D0D4F8B2
:100520003031B3F5807F11D0D4F828319DF8072001
:10053000234483F82820D4F828310133DBB2C4F8EF
:100540002831D4F830310133C4F8303106F0B2FF2D
:10055000D1E702B010BD00007FB590F838310446F5
:100560000D46002B33D1866926B9042007F098FD8B
:10057000A0610660A369186858BB8C2007F090FD45
:100580002B46B4F922200646B4F9201004F09EFA56
:10059000A3691E60B4F92420531C06D0A06903216E
:1005A000B4F92630006804F0A1FAA369186870B1A4
:1005B0000A4B0022694600940393094B029201936F
:1005C00004F01BF8039B13B19B686846984704B07E
:1005D00070BD294603F0A0FFDCE700BF64510508A9
:1005E000ED04040810B4D0E9013401686210E40796
:1005F0005DF8044B01EB020044BF8A58D3581847FA
:1006000008B590F838313BB1012001F027FB0648CE
:10061000BDE8084001F03EBA82691AB113680033A0
:1006200018BF0123184608BD6821002470B5044690
:100630000D4601F02FFA30B12368294620461B6C85
:10064000BDE87040184770BDA0F59860EEE7000067
:1006500013B590F8383104468DF807102BB1C9B2A4
:100660000B48FFF7E3FF02B010BDA369186803F061
:10067000A7FF0028F9D0A36901220DF1070118682E
:1006800003681B699847013018BF0120EBE700BFE2
:10069000682100242DE9F04107468846164601F0FE
:1006A000F9F980B10024A6420ED9351B08EB0401EC
:1006B0003846B5F5007F28BF4FF400752A462C4414
:1006C00000F0CAFEEFE704462046BDE8F081A0F541
:1006D0009860DFE770B590F8383105460E4614464D
:1006E0002BB10F48FFF7D6FF0446204670BDAB691B
:1006F000186803F065FF0028F9D0AB69012118687C
:10070000D0F8883088301B6B9847AB692246314659
:10071000186803681B699847013008BF0024E4E7A4
:100720006821002430B50446C3B001F029F905461C
:10073000D4F8D835C3F58073984203DDD4F8D85582
:10074000C5F580752A4601AB02A9204600F06FFF6F
:10075000019902AB00226D1A1D44D4F8D835B3F5C7
:10076000807F19D08A4217D0D4F8D835B3F5807F6E
:1007700010D0D4F8D035A85C234483F8D004D4F842
:10078000D0350133DBB2C4F8D035D4F8D8350133D5
:10079000C4F8D8350132E0E743B030BD38B504467F
:1007A00000F002FB2046FFF7BDFFD4F8D8552046E5
:1007B00000F002FB284638BDA0F59860EEE7000087
:1007C00010B590F8383104462BB10648FFF7E6FF24
:1007D0000446204610BD06F057FED4F8304106F01E
:1007E00069FEF6E76821002438B5044600F0DCFA1B
:1007F0002046FFF797FFD4F8D8354BB1D4F8D4355D
:10080000234493F8D054204600F0D6FA284638BD49
:100810004FF0FF35F7E7A0F59860E5E710B590F8E1
:10082000383104462BB10B48FFF7DEFF0446204663
:1008300010BD06F029FED4F830313BB1D4F82C01BC
:10084000044494F8284006F035FEF0E74FF0FF34FA
:10085000F9E700BF6821002438B5044600F0A4FA87
:100860002046FFF75FFFD4F8D835A3B1D4F8D435CC
:10087000234493F8D054D4F8D4350133DBB2C4F810
:10088000D435D4F8D835013BC4F8D835204600F02B
:1008900093FA284638BD4FF0FF35F7E7A0F598608A
:1008A000DAE7000010B590F8383104462BB1114852
:1008B000FFF7D2FF0446204610BD06F0E5FDD4F850
:1008C00030319BB1D4F82C31234493F82800D4F86C
:1008D0002C310133DBB2C4F82C31D4F83031013B78
:1008E000C4F83031044606F0E5FDE4E74FF0FF348C
:1008F000F9E700BF6821002408B54FF48072002199
:100900000FF066FE0022C0F80021C0F80421C0F8F4
:10091000082108BD2DE9F0410025204C4FF47A78DC
:100920001F4F202604F128002760E561C4E9015823
:10093000C4E90565FFF7E0FF012384F8383140F290
:100940000913184C23844FF4857304F128002760A1
:1009500063844FF6FF73E561A384E384C4E901581F
:10096000C4E90565FFF7C8FF84F8385116230E4C1B
:100970002384172304F12800276063840C23E56196
:10098000A3840B23C4E90158C4E90565E384FFF798
:10099000B3FF84F83851BDE8F08100BF981A0024F5
:1009A00078510508201800245C19002400207047A5
:1009B0007047704710B5D0F88C452CB1236820469D
:1009C0005B689847A468F8E710BD38B50D46D0F8C5
:1009D0008C4534B12368204629469B689847A46813
:1009E000F7E738BD004870473C520508054B10B585
:1009F0000446036005F08FFB204605F0A5FB20466A
:100A000010BD00BFBC51050810B50446FFF7EEFF4E
:100A10004FF4B261204607F077FB204610BDF7B5D2
:100A2000002305460E46D0F88C45A4B12368314614
:100A30000DF103022046DF6801ABB8479DF80310B3
:100A40000346042905D0019A284604F0C1FD03B0ED
:100A5000F0BDA468E9E7019A9DF80310F4E770B5CA
:100A600005460E4622B10021BDE8704004F0ACBB43
:100A7000D0F88C455CB123680022314620461B69C2
:100A8000984710B101212846EEE7A468F2E7214615
:100A9000F9E770B50E460546D0F88C4500213CB10B
:100AA0002368314620465B699847A4680146F6E70B
:100AB0002846BDE8704004F087BCF8B505460E46F0
:100AC0001746D0F88C453CB1236820463A4631465B
:100AD0009B699847A468F6E728460121BDE8F840DD
:100AE00004F0D0BC70B5002186B0044604F06CFF61
:100AF00000234FF48975A188EF26ADF806302389CD
:100B0000ADF8045002258DF810301B0AE2888DF8EC
:100B1000113040F201238DF80750ADF8123040F249
:100B200003138DF809500125ADF8143004F10A03C0
:100B30008DF8086005AE8DF80A501C468DF80C1033
:100B400001AD090A8DF80E20120A8DF80B008DF800
:100B50000D108DF80F202A46083303CAB24243F81D
:100B6000080C43F8041C1546F5D1128820461A805B
:100B700006B070BDF8B5002406460D46274630463F
:100B800010F0FEF8A04207D9335D05F8143005EBEC
:100B9000440301345F70F2E7400000F0FE00F8BD4E
:100BA00038B50446D0F88C5535B12B6828461B6AF9
:100BB000984710B9AD68F7E7284640F2023304F2CF
:100BC0004A51A4F84835FFF7D5FF94F84835184442
:100BD00084F8480504F5A96038BD000040F20233EE
:100BE00000F20A5110B50446A0F808350548FFF791
:100BF000C1FF94F80835184484F8080504F5A1608D
:100C000010BD00BFA451050840F2023310B50446E0
:100C1000A0F8C83400F2CA40FFF7DCFB94F8C834EF
:100C2000184484F8C80404F5996010BD2DE9FF410B
:100C300000231D4A044600F54E788DF80A30092538
:100C400090F888350192FA228DF8083001238DF84A
:100C50000C208DF80930C0238DF80B3001AB03CB8D
:100C6000C4F83803C8F8041088F80820D4F88C6554
:100C70008EB13368002130461B689847478805F5D8
:100C80004E7300F10901093FE0183A463D440FF068
:100C9000A1FBB668ECE784F83A5340462D1284F87D
:100CA0003B5304B0BDE8F0810902FFFF73B5044671
:100CB0000D4616460CF02AFB4FF4807301462A4677
:100CC00020460093334604F047FE024B2046236043
:100CD00002B070BDBC51050810B5D0F88C35044683
:100CE000A3B9C0F88C1594F8883508464A790B7179
:100CF00094F88835134484F888350B685B6A984704
:100D0000238918442081012010BD13469A68002AC7
:100D1000FBD19960E7E71FB5044604F017FE0146D2
:100D2000684603F09FFF4021684604F00AF8D4F8B3
:100D30008C4534B1236820466946DB699847A4682E
:100D4000F7E7684603F095FF04B010BD10B5044600
:100D5000FFF7E1FF2046BDE8104004F067BD00004A
:100D600010B50D4C2378BFF35B8FDB0712D4204600
:100D700006F068FF70B140F25F2242F2413107484D
:100D8000FFF794FF204606F07FFF054A0549034818
:100D900006F048FF014810BDD41B0024D81B0024D6
:100DA00000000024ED09040810B5FFF7D9FF03681F
:100DB000BDE810405B6F184710B5FFF7D1FF03681F
:100DC000BDE810409B6F184710B5FFF7C9FF0368D7
:100DD000BDE81040DB6F184704F0F0B804F0B2B87B
:100DE00004F0DCB8704770477047436A93F87800A6
:100DF0007047D0F8A404704701207047004870473E
:100E0000985305082DE9F04794B004460F464B224D
:100E1000002101A80FF0DCFB2679D4F8A434751C5E
:100E200094F80E90002B94F80C80EDB294F80DE03D
:100E300014BF05200020002F40F0938040F20923CA
:100E400009218DF81D0042F20540ADF804304FF441
:100E500081738DF815100121ADF808308023ADF8AD
:100E60001E0010208DF80B3032234FF0040A242787
:100E70008DF80C3008234FF0030C4B228DF80D3009
:100E80000B238DF819101D348DF80E3040F202231B
:100E90008DF81C10ADF8103002238DF821000520CC
:100EA0008DF822108DF825108DF8271006218DF869
:100EB00006208DF80F608DF812308DF817608DF8D0
:100EC0001A308DF81B308DF823008DF826C08DF870
:100ED0002A308DF82B108DF82C008DF816A08DF887
:100EE00024708DF828A08DF829708DF82D708DF85C
:100EF0002E1007218DF82F6041F202068DF8311077
:100F00008DF8411040F207518DF83050ADF8366041
:100F100040F209468DF83A5040F602258DF832002D
:100F20008DF842002046ADF848100DEB0A018DF80F
:100F300033908DF834C0ADF83860ADF83C508DF882
:100F400043808DF844308DF846308DF84AE08DF8B6
:100F50004B308DF84D300FF03DFA204614B0BDE80F
:100F6000F0870020FAE700000A4B10B50446036042
:100F7000FFF7F6FE05F0CFF804F5247003F07CFFD0
:100F800004F17C0003F078FF04F1700003F074FFBB
:100F9000204610BD5853050810B50446FFF7E4FF7E
:100FA0004FF49561204607F0AFF8204610BDFFF7DB
:100FB0000BBF0000034B10B50446036003F0DAFDDD
:100FC000204610BD8452050810B50446FFF7F2FF15
:100FD0002821204607F098F8204610BD034B10B595
:100FE0000446036003F0C6FD204610BD54520508B8
:100FF00010B50446FFF7F2FF3421204607F084F8CD
:10100000204610BD034B10B50446036003F0B2FD4B
:10101000204610BD6C52050810B50446FFF7F2FFDC
:101020003821204607F070F8204610BD38B51E4B19
:101030000D4604464FF400721968C0F80F109988E5
:101040009B79A0F8131002214375284603F06FFE28
:101050004FF4007220730221284603F06DFE4FF416
:10106000007260730321284603F061FEA0732846D6
:1010700003F000FE20B9AF220C490D4806F05AF9E2
:1010800004F185020023C4F8882204F2992284F82E
:10109000783084F88430C4F88C3284F89832C4F8FC
:1010A0009C24C4F8A03438BDA0520508315305086B
:1010B0003C5305082DE9F34104460E461546FFF75B
:1010C00083FEF28823799A4237D1002D35D1777883
:1010D000012F2ED1F378202B27D13289072A24D152
:1010E00004F10F0804F11605404629460FF040F9B7
:1010F000D0B1D4F81630C4F80F30638B207CE17B7C
:10110000A4F8133001EB0021E57C607C237F01EB28
:1011100000410095A07C2568637501EB0061237D8B
:101120002046627D6D6BA8473D46F378212B08BFB2
:101130000125284602B0BDE8F0810025F9E710B589
:101140000446FFF741FEFFF70BFE217B04F080FE13
:1011500004F1850304F17C00C4F888320023C4F84C
:101160008C3284F8843003F03CFE94F884302BB940
:1011700023682046DB6BBDE81040184710BD000017
:1011800070B50446FFF720FED4F8A0542DB140F20C
:10119000DD120F490F4806F0CDF804F29923C4F888
:1011A0009C34FFF7DDFD617B04F0B0FD84F89852BC
:1011B000C4F8A00404F5247003F013FE94F89832E8
:1011C0002BB9236820469B6BBDE87040184770BD63
:1011D00031530508AC52050810B4D0E90134016858
:1011E0006210E4075DF8044B01EB020044BF8A582B
:1011F000D3581847F0B587B004460026FFF7E4FD42
:1012000002ADFFF7ADFDA17B03234FF40072009503
:10121000059604F025FB2846194FFFF713F9FFF751
:101220009FFD184B217B4FF40072009505970294A7
:10123000CDE90336022304F013FB2846FFF702F939
:10124000FFF78EFD104B617B4FF400720095059700
:101250000294CDE90336022304F002FB2846FFF78F
:10126000F1F8FFF77DFD4FF40073D4F89C24617B07
:1012700004F0EEFC012084F8980207B0F0BD00BF36
:10128000945205083F1104088111040838B502235F
:10129000044615464371002383600B4B40F8703BB6
:1012A00003F092FD04F17C0003F08EFD04F5247040
:1012B00003F08AFDC4F8A454FFF752FD2146FFF75E
:1012C0000BFD204638BD00BF5853050870B50446D5
:1012D0000D46FFF779FD84F87850002D3ED194F843
:1012E000843033B1FFF73CFD217B04F089FB84F8A7
:1012F000845004F1850304F17C0600253046C4F8CF
:101300008832C4F88C5203F06CFD304603F062FD65
:1013100028B94FF4A2721449144806F00BF894F857
:10132000983233B1FFF71CFD217B04F069FB84F890
:10133000985204F2992304F52475C4F89C340023D0
:101340002846C4F8A03403F04CFD284603F042FDC3
:1013500020B94FF4A77204490548DEE704F1700094
:10136000BDE8704003F03DBD31530508BA52050891
:10137000CB52050810B50446FFF726FD0021204694
:10138000BDE81040FFF7A2BF38B50D460446FFF791
:101390001BFD042D05D020460021BDE83840FFF795
:1013A00095BF38BDF8B5164604460D461F46FFF7F3
:1013B0000BFD0423EA88337023799A4225D169789A
:1013C000012922D1EA78212A08D0222A0BD0202A0A
:1013D0004FF000001BD13070163401E00F34317033
:1013E00007203C60F8BDAB88204613F0010308BF1E
:1013F0001946FFF76BFFAB8803F00103E366AB8888
:1014000003F00203A366022333700020EAE70323FC
:101410003370E7E710B58AB00446FFF7C5FC6846AD
:1014200003F09CFB0A4B694604F170000093099499
:1014300003F0EFFC2046FFF7BFFC064B0021684697
:101440001A6803F0D5FB6846FFF7B4FD0AB010BD7B
:1014500084520508A852050870B58EB0154604469A
:101460000E46FFF7A1FC01A803F078FB0E4B0C958C
:10147000002501A904F17C0001938DF83450CDE9D9
:101480000A4603F0C6FC2046FFF796FC074B2946A8
:1014900001A81A6803F0ACFB9DF8344001A8FFF7DF
:1014A0009DFD20460EB070BD54520508A852050897
:1014B00010B50446FFF788FC94F884307BB9D4F863
:1014C0008C3263B1FFF74CFCD4F88C3204F1850206
:1014D000217B04F05BFC10B1012384F8843010BD43
:1014E0002DE9F8431E460446894690469DF8207033
:1014F000FFF75AFC0023336094F87830E3B194F896
:101500008430CBB9D4F88C52C5F50075454528BF59
:101510004546B8F1000F05D02A464946D4F888025E
:101520000EF058FFD4F88C322B44C4F88C3235605E
:1015300017B12046FFF7BCFF2046BDE8F843FFF790
:101540003BBCF0B50446406A85B0012690F878505F
:101550002DB984F830503546284605B0F0BD04ABAF
:101560000027D4E90A1243F8047D0096FFF7B8FF7C
:101570000399E36AA26A5B1A0A44E362A26213B99E
:1015800084F83060E8E7606A3D46FFF791FFE3E7E3
:101590002DE9F0431C4691B0904606468946FFF778
:1015A00003FC002C4FF0000502A806BF01AC012788
:1015B0000027256003F0D2FA104B02A906F524702B
:1015C00002938DF83C708DF83D50CDE90D84CDE946
:1015D0000B6903F01EFC3046FFF7EEFB084B294673
:1015E00002A81A6803F004FB9DF83D4002A8FFF72B
:1015F00009FD204611B0BDE8F08300BF6C5205081C
:10160000A852050810B5D0F8A034044673B990F874
:1016100098325BB9FFF7A4FB4FF4007304F29922F0
:10162000617B04F015FB012384F8983210BD70B57E
:1016300004461E4600230846336094F87830EBB128
:1016400094F89832D3B9D4F8A054D4F89C149542A5
:1016500028BF15462A460EF0BDFE3560D4F89C34EE
:10166000D4F8A0242B44551BC4F89C34C4F8A054CF
:1016700025B92046BDE87040FFF7C4BF70BD37B53F
:101680000446406A90F878502DB984F83550012509
:10169000284603B030BD02AB002243F8042DD4E944
:1016A0000A12FFF7C4FF0199A26A0A44A262226BE0
:1016B00013680B4413600199E36A5B1A94F83410C1
:1016C000E36209B9126802B91BB9012384F8353005
:1016D000DEE7606A0025FFF795FFD9E76FF0150098
:1016E000704700290CBF6FF01800002070470120E0
:1016F00070476FF0150070476FF0150070471120AC
:10170000704770477047704703689B6C1847A0F597
:101710009860F9E77047704770477047036818474B
:1017200010B50446012000F099FA94F8780010BD35
:10173000A0F59860F4E7000038B54FF0FF320123C0
:10174000FF210B4806F078FE0A4D00F075FA0446BA
:1017500095F878301BB1012000F080FAF8E700F02E
:101760006BFA001BC728F6D9BDE83840FEF748BE23
:10177000A02700246821002407B502AB012243F80A
:10178000041D1946FFF768FE18B1019803B05DF813
:1017900004FB4FF0FF30F9E7A0F59560FFF7ECBFD1
:1017A00007B5002302A9012201F8013DFFF7F0FE71
:1017B00020B19DF8070003B05DF804FB4FF0FF3047
:1017C000F9E7A0F59560FFF7EBBF2DE9F843044674
:1017D000884617461E46089DFFF7F6FAD4F8F0959E
:1017E000B9F1000F04D02B46324639464046C8476F
:1017F000C4F8E085C4F8E475C4F8E865C4F8EC55AD
:10180000BDE8F88370B506460025FFF7DDFA06F25D
:10181000F454D6F83436AB4208D92046103454F884
:10182000043C1BB11B6801359847F2E770BD00000E
:10183000B0F5966F03D10121014806F0DFBD704776
:10184000A027002410B4D0E9013401686210E40735
:101850005DF8044B01EB020044BF8A58D358184787
:10186000114B03F1780270B503600446C0F8A82458
:1018700000F2F45603F1D80200F23465E833C0F800
:10188000AC24C0F8C034AE4204D0103D2846FEF768
:10189000D9FDF8E704F5956005F0C8F92046FFF793
:1018A00063FB204670BD00BFD8530508A0F59560C6
:1018B000FFF7D6BFA0F2AC40FFF7D2BF10B5044689
:1018C000FFF7CEFF4FF4C761204606F01DFC20460F
:1018D00010BDA0F2AC40FFF7F1BFA0F59560FFF797
:1018E000EDBF0000F7B5044615461F460E460BF047
:1018F0000DFDBDF824302A46014601932046BDF86F
:101900002030002500933B46FFF7C0FC002104F582
:10191000956005F061F94FF47A73C4F8C454294610
:10192000C4F8C83404F59A60144B03F178022360BC
:10193000C4F8A82403F1D802E833C4F8AC244FF467
:101940008072C4F8C0340EF043FEC4F8D055C4F819
:101950000056C4F8D455C4F81056C4F8D855C4F885
:101960002056C4F83056C4F83456C4F8F05516B1B1
:101970002046FFF74FFD204603B0F0BDD8530508C1
:1019800038B50546FFF710FA95F898325BB9D5F8E7
:10199000A044B4F5007F28BF4FF400742846FFF739
:1019A0000BFA204638BD0024F8E7000070B586B079
:1019B0000446FFF7F9F92E4B2046C4F8F035FFF73F
:1019C000FBF92C4B2046029405932B4B03930023E9
:1019D0000493FFF7E9F9D4F83456032D13D804EB38
:1019E00005166B1C04EB051506F2F456C4F83436E4
:1019F0003046FEF727FD059BC5F800361BB15B6836
:101A000002A93046984720460026FFF7D5F902A8DC
:101A1000FEF718FDBC2006F043FB184B0546314687
:101A20000360403040F8306C06F08EFD05F1540044
:101A300006F028FD124B4FF48072284600931821BF
:101A4000334606F01BFE0F4B02A9C4F8DC55059384
:101A500028460D4B0496CDE9023606F01BFE02A87F
:101A6000FEF7F0FC2046FEF75DFE06B070BD00BF3D
:101A700031180408B053050825070408FC69050857
:101A8000C8530508BC53050839170408A0F5986029
:101A9000FFF78CBF90F878007047000037B50F4C07
:101AA0000F4D204606F0A0FC2A460E49204606F0BF
:101AB000B9F842F2120301220B4CCDE900320022A8
:101AC0004FF4F85320461146FFF70CFF2A4607490A
:101AD000204603B0BDE8304006F0A4B8A02700249B
:101AE000000000240384040868210024611804080D
:101AF00008B50DF01BF92DE9F84306460D46071D04
:101B000000F10709002417F8011B0A22284600F0FB
:101B10005BF880462E21284600F029F84F454044C6
:101B20000444F0D10A22F179284600F04DF820440F
:101B3000BDE8F883024B034A1A6000225A607047DE
:101B4000B4270024F454050870B5044608460D4631
:101B50000FF016F923680246294620465B68BDE867
:101B60007040184709B1FFF7EFBF08467047036898
:101B70001B68184770B58AB00D460023012A98BF2C
:101B80000A220AA901F8043DB5FBF2F402FB14563F
:101B90002546F3B2092E94BF30333733DBB201F858
:101BA000013D002CF0D1FFF7DDFF0AB070BD10B48D
:101BB0002AB90368C9B25DF8044B1B681847D2B252
:101BC0005DF8044BFFF7D6BFFFF7F1BF10B500F08B
:101BD00047F80A4CFEF7E6FBFFF7C2F8FFF7B6F846
:101BE0004FF4E1310648FFF7E1FEFEF7AFFBFEF7E9
:101BF000B1FB002CFBD0AFF30080F8E70000000041
:101C00006821002410B50446FEF7C9FB84423BBF9F
:101C10002401024B4FF0FF30185F10BD0400002478
:101C200010B5044602F001FE204610BD10B5044672
:101C300002F0FBFD204610BD07B50749684602F0DB
:101C400031FE4FF47A720023DDE900010CF09EFEB4
:101C500003B05DF804FB00BFC027002406F0A4BC5D
:101C600008B5044802F0EBFD0348BDE8084002F067
:101C7000E6BD00BFD8270024C027002438B50A4C91
:101C80000A4D204602F04BFE2046094C2A460949DF
:101C900005F0C8FF204602F04DFE2A4620460649C0
:101CA000BDE8384005F0BEBFD8270024000000245E
:101CB000C02700242D1C0408211C04082DE9F04134
:101CC00007011C4D04460E46EA19D06810B11C21CC
:101CD00006F01AFA2046FFF795FF80461C2006F012
:101CE000DFF904461C2200210EF072FC414620461A
:101CF00004F006FBEB19012EDC6010D006D3022E97
:101D000012D0204602F00FFB022103E0204602F031
:101D10000AFB00212046BDE8F04102F011BB20463D
:101D2000BDE8F04102F0F2BA204602F0FCFA0121CF
:101D3000F0E700BF04000024F7B506460F46FEF7A3
:101D40002EFB864226D2164D05EB0615EC689CB993
:101D50003046FFF757FF06461C2006F0A1F904465F
:101D60001C2200210EF034FC009700230122314692
:101D7000204604F0CDFAEC600A4B0B491A46D3F822
:101D800094008842FBD1236837B1A1680B604FF4FF
:101D90004073536103B0F0BDE1681B04F6E700BF78
:101DA0000400002400640258000300801EF0040FA9
:101DB0000CBFEFF30880EFF30980816911F8021C72
:101DC000002932D101B590E80F10E047BDE800507E
:101DD0008CE80300244B93E80600914208BF70474B
:101DE0001A6041B91EF0100F10D1204B186820F076
:101DF000010018600AE02CE9F00F1EF0100F08BF78
:101E00002CED108A81F822E0C1F838C0906B92F86E
:101E1000221061F0FF0E1EF0100F08BFB0EC108A08
:101E2000B0E8F00F80F309887047114A13689942AF
:101E3000FAD801B552F821C00FC8E047BDE80050FC
:101E4000CCF80000704701B501F030FBBDE801405F
:101E5000EFF3098CBEE701B501F0ECFABDE80140F3
:101E6000EFF3098CB6E70000380C002434EF00E0F3
:101E7000C0550508014608B530B96FF0030000F001
:101E8000F2F96FF0030008BD132001F097FE30B99E
:101E90004FF0FF3000F0E7F94FF0FF30F3E700209C
:101EA000F1E7000008B5EFF305832BB9EFF31083DA
:101EB00013B9EFF3118333B16FF0050000F0D3F9DC
:101EC0006FF0050008BDDFF808C000DFFAE700BFCB
:101ED000751E0408EFF310832BB9EFF3118000385F
:101EE00018BF0120704701207047000038B538B393
:101EF000846805686CB114F0030302D1C2680F2A2C
:101F000013D800246FF00801002002F0B9F8204631
:101F100038BDC368002BF4D1104BD3F8900088B1C2
:101F200000F0FCFB0446A0B10123F322A3700023C0
:101F3000656022700A4AC4E90233084B5A66E6E734
:101F40000546E9E701221021D3F8800000F072FB7A
:101F5000E8E76FF0040102F093F8D8E7240C0024BE
:101F60003D20040870B5054610B10378F32B07D067
:101F700028466FF0030102F083F86FF0030070BD94
:101F8000836863B1284601F0EDFB00226FF0020187
:101F900001F06CFDA8680028F4D101F051FCAB7889
:101FA000002613F001032E700FD0094B2946D3F8F9
:101FB000904024B1204600F0CBFB3046DFE7D3F859
:101FC000800000F06CFB2046D9E71846D7E700BF39
:101FD000240C0024930710B502F0010422D400F170
:101FE0000C0384B153E8000F00EA01028A4203D0D7
:101FF000BFF32F8F002005E020EA010243E8002410
:1020000004B1EFE710BD53E8000F084203D1BFF35E
:102010002F8F002005E020EA010243E8002404B1EC
:10202000F1E7EFE7C06801EA00031CB18B4218BF7B
:102030000020E7E7002B08BF0020E3E7F8B50546DE
:10204000846804B9F8BD94F823202846616AA7681B
:10205000FFF7C0FF064638B1204601F08CFB002296
:102060003146204601F002FD3C46EAE7F8B50D4650
:1020700017461E46044620B10378F32B01D10029F0
:1020800007DA20466FF0030101F0FAFF6FF003005A
:10209000F8BDFFF79FFF0028FAD186B131464320F3
:1020A00001F08CFD40B1074B20465E69314601F0DE
:1020B00047FB756286F823706FF00100E8E76FF068
:1020C0000200E5E7240C00242DE9F041064620B18A
:1020D0000378F32B01D1002909DA6FF003056FF0C3
:1020E0000301304601F0CCFF2846BDE8F08100F145
:1020F0000C0353E8002F42EA010543E8005000B109
:10210000F7E7B4681CB9204601F09AFBECE794F8B5
:1021100023203046616AD4F80880FFF75BFF07464A
:1021200078B194F823309B0756BF656A054620EACC
:102130000505204601F01FFB00223946204601F02C
:1021400095FC4446DEE70000024608B5EFF3058340
:1021500033B100206FF0050101F092FF002008BDAF
:10216000FFF7B8FE0028F4D11046DFF808C000DF02
:10217000F5E700BFED1E040838B502460D46EFF343
:1021800005834BB192B96FF003046FF00301104661
:1021900001F076FF204638BDFFF79CFE0028F1D104
:1021A0001046DFF830C000DF0446F3E71378F32B66
:1021B000E9D1002DE7DB02F10C0353E8001F41EAEF
:1021C000050443E8004000B1F7E7104601F0B6F916
:1021D000E0E700BFC9200408F8B504460E461746DC
:1021E0001D46EFF3058343B18CB920466FF0030120
:1021F00001F046FF6FF00300F8BDFFF76BFE00280B
:10220000F2D120462B46DFF828C000DFF4E7237820
:10221000F32BEAD1002DE8D1002EE6DB3A46314619
:102220002046FFF7D7FE002808BF6FF00200E3E763
:102230006D200408024608B5EFF305833BB1104654
:102240006FF0050101F01CFF6FF0050008BDFFF7FE
:1022500041FE0028F3D11046DFF804C000DFF5E7A7
:10226000651F040870477047EFF310832BB9EFF335
:102270001180003818BF012070470120704700000E
:10228000064BDA6A3AB1D0695B6C1BB11B699842A4
:1022900028BF184670474FF0FF30F5E7240C0024A4
:1022A00070B5464C237A012B00F0858033B14FF096
:1022B000FF3001F0D9FE4FF0FF3070BD404DEB68AC
:1022C000E3652B8AD5E90B61A4F85430AB6830463E
:1022D000236400F097F908B1C4F88060D5E905617E
:1022E000304600F08FF908B9D4F880606667D5E908
:1022F0000761304600F086F908B9D4F88060A66717
:10230000D5E90961304600F07DF908B9D4F880605C
:10231000E6676E6B3EB131683046D6E9022300F0C5
:10232000DCF9C4F88460AE6B3EB131683046D6E962
:10233000022300F0D2F9C4F88860EE6B3EB1316838
:102340003046D6E9022300F0C8F9C4F88C602E6C40
:102350003EB131683046D6E9022300F0BEF9C4F838
:1023600090606E6C3EB131683046D6E9022300F0D1
:10237000B4F9C4F89460AE6C3EB131683046D6E929
:10238000022300F0AAF9C4F89860EE6C3EB13168FF
:102390003046D6E9022300F0A0F9C4F89C602D6D08
:1023A0003DB129682846D5E9022300F096F9C4F822
:1023B000A0500123237200207FE700BF240C0024DB
:1023C0005055050870B5254D2B7A012B07D06FF0BD
:1023D00006004FF0FF3401F047FE204670BD01F0CB
:1023E00031FC10B94FF0FF30F3E71D4AFF231D4EBB
:1023F00082F8223092F82230D26863F0FF031A4943
:10240000C2F302227068DB4314BFB3FA83F32023C4
:10241000C3F12003934298BF531CFE2202FA03F338
:102420000F4ADBB2D37701F07BFE04460028D9D1F6
:1024300001F0CEFE286101F0B7FE0C4801F092F9E0
:1024400001F0F6F93368DB074CBF0223032383F363
:102450001488BFF36F8F02232B72BEE7240C002475
:1024600000ED00E050550508571E0408400C0024FC
:1024700010B50F4C237A022B13D101F09DFE0123DE
:102480006372BFF34F8F0B4A5168C90003D54FF0F9
:1024900000615160A37204232372BDE81040FFF76E
:1024A000EFBE6FF0070001F0DFFD002010BD00BFA0
:1024B000240C002400ED00E038B51E4C0546237ABC
:1024C000042B35D1FFF7DCFEE26A854203462CBFC0
:1024D00000F1FF332B4612B1D069C01AD061626C93
:1024E00012B11069C01A1061E26813441544E36028
:1024F000E3689D4213D102230020237201F0A0F96A
:1025000000236372BFF34F8FA27A22B1A3724FF000
:102510008052094B5A60BDE8384001F045BE013396
:10252000E36001F04BF9236D002BE1D09847DFE722
:1025300038BD00BF240C002400ED00E0704738B522
:1025400004460D46FFF78EFE29462046BDE838407A
:1025500001F04CBD08B5FFF7F1FFEFF3058333B190
:102560006FF0050001F080FD6FF0050008BDFFF77A
:102570007BFE0028F4D1DFF808C000DFF6E700BFDB
:10258000A122040808B5EFF3058333B16FF005000D
:1025900001F06AFD6FF0050008BDFFF765FE002839
:1025A000F4D1DFF808C000DFF6E700BFC523040858
:1025B00008B5EFF305832BB16FF0050001F054FD72
:1025C000002008BDFFF750FE0028F5D1DFF804C059
:1025D00000DFF6E771240408024608B5EFF305832F
:1025E0002BB16FF00500BDE8084001F03DBDFFF7DD
:1025F0003BFE0028F5D11046DFF804C000DF08BD1F
:10260000B924040810B598B140EA010313F0070398
:102610000ED117290AD90160083910220C1842601E
:102620008460435081684A60C3600123184610BD2E
:102630000023FBE770B580B399B132F003032CD1CE
:102640000F3100F1080421F00706234624685D6875
:10265000E11A25F00305491B8E4204D9216800299F
:10266000F3D1084670BD45683243016835440144E2
:10267000456051F8040C0839854288BF4D605868A0
:1026800018B903F108015A60EBE720F003001918AC
:102690001C504A6019600831E3E70021E1E710B5FA
:1026A00080B1C1B1A1F1080400F108030022A342E6
:1026B00009D1596821F003044168091B41603AB906
:1026C0005A60012010BD19681A4621B10B46EEE789
:1026D0001B681360F5E70846F4E730B5C0B189B16F
:1026E000C2B1CBB100240160C3604361C0E90142C3
:1026F00002FB01F41D1905611846013904D1A41A21
:1027000019510121084630BD851805602846F4E7B7
:102710000146F7E71146F5E71946F3E7034610B51A
:10272000A8B100F1140252E8000F10B9BFF32F8FC7
:1027300004E0016842E8001404B1F4E738B104335E
:1027400053E8002F511C43E8001404B1F8E710BD12
:1027500030B5F0B1C3688B421BD803698B4218D9DE
:1027600000F114031A680A60BFF35F8F53E8002F6B
:102770000C689442F6D143E8001505B1F2E7043045
:1027800050E8003F5A1E40E8002101B1F8E7002060
:1027900030BD6FF00300FBE7EFF310832BB9EFF3CD
:1027A0001180003818BF0120704701207047D1E91F
:1027B000013223B19A608A681AB153607047C262CD
:1027C000F9E70363704700002DE9F84F8846074694
:1027D00038B131B1B0FA80F1B8FA88F30B441F2B4D
:1027E00006DC6FF003010020002401F05FFC70E0C4
:1027F00008F1030626F003060C3606FB00F9F2B1D9
:102800009468D2F800A0D2E904513CB1A30702D1E8
:10281000D368332B05D86FF00801E4E7D368002BA9
:10282000F9D13DB115F0030301D1894556D96FF0B7
:102830000901D8E70029FAD11CB18B460DE0924678
:102840001546284BD3F8A000E0B1FFF767FF044618
:10285000A8B1002D40D14FF0010B224B0022494678
:10286000D86FFFF7E7FE0546C0B9BBF1000F06D0F1
:102870001C4B2146D3F8A00058B1FFF769FF6FF059
:102880000401B0E701223421D3F88000FFF7D2FE23
:10289000DDE7D3F88000FFF702FFF0E74A460021AA
:1028A0000DF096FE4BF00203FA22A3700023394686
:1028B000227004F10C003246A360C4F804A0C4E9FD
:1028C0000983C4E90B332B46FFF707FF054B064A84
:1028D0001A672046BDE8F88F0123E5E7002CE3D115
:1028E000AFE700BF240C00247929040800F1280375
:1028F00010B553E8002F12B9BFF32F8F04E0511E1B
:1029000043E8001404B1F4E70AB9002010BDC06A1E
:1029100001220028F9D0811CD1E84F3FC1E8442FA3
:1029200004B1F9E7DBB2002BF0D08068F1E7036B6C
:1029300030B5E3B1CD780024DA78AA420FD31A4635
:10294000C1E901248AB19160A4B16160283050E8E6
:10295000003F5A1C40E8002101B1F8E730BD5A6839
:102960001C46002AECD01346E6E7C162ECE7C1E959
:102970000133C1620163E9E7F8B5877804468FB394
:10298000C568002701462846FFF711FF277005F1AB
:102990000C042046FFF7DCFEAB68002B48D0204635
:1029A000FFF7BCFE0446002842D0284600F0DAFEBD
:1029B00006463A46394601F059F8304600F02EFFF7
:1029C0006A6A0646816804F10C000DF003FDF923E4
:1029D000A7702370F368E37021462846BDE8F840ED
:1029E000FFF7A5BF8568AB68002BF5D05B78832B1C
:1029F000F2D1284600F0B6FE06463A46394601F0C6
:102A000035F8304600F00AFF06466A6A04F10C0108
:102A100080680DF0DFFCF3680BB1E2781A700023D8
:102A2000214605F10C002370BDE8F840FFF790BE89
:102A3000F8BD00002DE9F0410C46174698460546C2
:102A400018B10378FA2B00D141B928466FF0030181
:102A500001F02CFB6FF00300BDE8F0818368C3B187
:102A60005B78832B15D100F07DFE06460122002104
:102A700000F0FCFF304600F0D1FE06466A6A2146AF
:102A800080680DF0A7FCF0680028E5D007700020F2
:102A9000E2E705F10C00FFF741FE064670B1214662
:102AA0006A6A0C3000240DF095FCF9233146284663
:102AB0003370B470F770FFF73AFFE8E7B8F1000F32
:102AC00010D04146932001F079F840B1074B2846D9
:102AD000596900F035FEEFF30983C3E902476FF04F
:102AE0000100B9E76FF00200B6E700BF240C002434
:102AF0002DE9F0410F4615469846044618B1037873
:102B0000FA2B00D141B920466FF0030101F0CEFA53
:102B10006FF00300BDE8F081FFF7E8FE06460028ED
:102B20003AD001462046FFF742FE626A06F10C01E8
:102B300038460DF04FFC0DB1F3782B70002504F1F1
:102B40000C07314638463570FFF702FEA3680BB913
:102B50000020DFE73846FFF7E1FD06460028F7D002
:102B6000204600F0FFFD07462946012200F07EFFC7
:102B7000384600F053FE626A0746816806F10C0091
:102B80000DF028FCF923B570314633702046FB6800
:102B9000F370FFF7CCFEDBE7B8F1000F10D0414631
:102BA000832001F00BF840B1074B2046596900F033
:102BB000C7FDEFF30983C3E902756FF00100A9E7D0
:102BC0006FF00200A6E700BF240C002408B5064BF6
:102BD00008219A6ED86EFFF7F7FD044BD864B0FA5F
:102BE00080F04009404208BD50550508240C0024DF
:102BF0002DE9F04106460F4690461C46EFF305834B
:102C00004BB196B930466FF0030101F04FFA6FF007
:102C10000300BDE8F081FFF7BFFD0028F1D1304689
:102C20002346DFF848C000DFF3E73378FA2BE9D119
:102C3000002FE7D0002CE5D106F10C00FFF76EFD68
:102C4000054680B1726A39460C300DF0C3FBF9239A
:102C50002846AC702B7085F80380C5E9017600F03A
:102C60006DFC2046D5E76FF00200D2E7352A040854
:102C7000F8B504460F4616461D46EFF3058343B1EB
:102C80008CB920466FF0030101F010FA6FF00300D9
:102C9000F8BDFFF781FD0028F2D120462B46DFF872
:102CA00044C000DFF4E72378FA2BEAD1002FE8D004
:102CB000002DE6D12046FFF719FE054670B100F160
:102CC0000C01626A38460DF085FB0EB1EB7833706B
:102CD0002846EC6000F032FC0020D9E76FF00200DB
:102CE000D6E700BFF12A0408EFF310832BB9EFF306
:102CF0001180003818BF0120704701207047000084
:102D000070B5A8B38468D0E900566CB114F0030321
:102D100002D1C2681B2A1AD800246FF008010020D3
:102D200001F0B4F9204670BDC368002BF4D1124BFA
:102D3000D3F8940030B901221C21D3F88000FFF7AA
:102D400079FC01E0FFF7EAFC044660B10123F522BB
:102D5000A3700023E670227065602376C4E9023315
:102D6000C4E90433DEE76FF0040101F08FF9D9E71D
:102D700005460646DBE700BF240C0024284B70B54F
:102D80005D6904460E4635B96FF0070101F07EF922
:102D90004FF0FF3070BD10B10378F52B07D02046FF
:102DA0006FF0030101F072F96FF00300F2E7037EA8
:102DB00053B9C0E90353EB6A436103B118610123BE
:102DC000EC6200202376E5E7C278D1070DD5C16813
:102DD000A9420AD1FF2B06D16FF00F0101F056F97D
:102DE0006FF00200D6E70133EBE7002EF8D093072F
:102DF0000AD5E06895F9203090F920209A4203DA4C
:102E000080F8203000F0C0FC3146532000F0D6FEA0
:102E100018B12946204600F093FC6FF00100B9E795
:102E2000240C00242E4B5A6970B5044632B96FF059
:102E3000070101F02BF94FF0FF3070BD10B103789E
:102E4000F52B07D020466FF0030101F01FF96FF05A
:102E50000300F2E7037E33B96FF00E0101F016F9BB
:102E60006FF00200E9E7C168914202D06FF00D01F6
:102E7000F4E7013BDBB2037613BB43690BB1016995
:102E800019612169F1B14B6192F92130D56ADDB93F
:102E900082F82030A36883B1204600F063FC064628
:102EA0002A46294600F0E2FDF36AC4E9036563613E
:102EB00003B11C610123F4622376002000F0C0FC02
:102EC0000020BAE7D362DFE7E978890706D5A96869
:102ED00021B191F920108B42B8BF0B466D69D6E73E
:102EE000240C002470B5044610B10378F52B07D0EC
:102EF00020466FF0030101F0C9F86FF0030070BDC8
:102F0000037EBBB16369C0680BB122691A61226993
:102F100002B3536190F92120C36AEBB990F92030D4
:102F2000934203D080F8202000F02EFCA068F8B96E
:102F300000F086FCA078002610F001002670DED09C
:102F4000134B2146D3F89450DDB12846FFF700FC1F
:102F50003046D4E7C362DDE7D978890706D599689A
:102F600021B191F920108A42B8BF0A465B69D4E7C3
:102F7000204600F0F7FB00226FF0020100F076FD22
:102F8000D4E7D3F88000FFF78AFB2846B7E700BFF5
:102F9000240C00242DE9F0410446002601270CB939
:102FA000BDE8F081E378D4F814801B0712D5A3683C
:102FB00026767BB1204600F0D5FB0022054611465F
:102FC00000F054FDEB6AC4E90356636103B11C6170
:102FD000EC6227764446E2E710B4C3789B071DD520
:102FE000C06890F92120C36ADC78A40709D59C68E1
:102FF0008C4208BF8C6824B194F92040A242B8BF2B
:1030000022465B69002BEFD190F92030934205D026
:1030100080F820205DF8044B00F0B6BB5DF8044B4F
:1030200070470000024608B5EFF3058333B1002076
:103030006FF0050101F02AF8002008BDFFF754FEEB
:103040000028F4D11046DFF808C000DFF5E700BF24
:10305000012D0408024608B5EFF305833BB1104685
:103060006FF0050101F012F86FF0050008BDFFF7E1
:103070003BFE0028F3D11046DFF804C000DFF5E77F
:103080007D2D0408024608B5EFF305833BB11046D9
:103090006FF0050100F0FAFF6FF0050008BDFFF7C3
:1030A00023FE0028F3D11046DFF804C000DFF5E767
:1030B000252E0408024608B5EFF305833BB1104600
:1030C0006FF0050100F0E2FF6FF0050008BDFFF7AB
:1030D0000BFE0028F3D11046DFF804C000DFF5E74F
:1030E000E52E0408EFF310832BB9EFF311800038BD
:1030F00018BF01207047012070470C30D0E85F3FB7
:1031000013B9BFF32F8F04E05A1EC0E8512F01B14D
:10311000F4E798B2003818BF0120704730B500F1CD
:103120000C02C189D2E85F3F994202D8BFF32F8FCA
:1031300004E05C1CC2E8554F05B1F3E7C0899BB2BF
:10314000984294BF0020012030BD0000F8B50E4623
:103150004FF6FE73411E0546994201D8B04207D290
:103160006FF003010024002000F096FF2046F8BD18
:103170001AB39468176844B114F0030302D1D268FB
:103180000F2A0ED86FF00801ECE7D368002BF9D1B5
:10319000114BD3F8980090B1FFF7C0FA0446A8B1DC
:1031A0000123F622A370002367602270A3600B4AFC
:1031B000094BA681E5819A66D8E71746E8E7012220
:1031C0001021D3F88000FFF735FAE7E76FF004012C
:1031D00000F062FFCAE700BF240C0024513204084B
:1031E00070B5054610B10378F62B07D028466FF06E
:1031F000030100F051FF6FF0030070BD836863B1FD
:10320000284600F0AFFA00226FF0020100F02EFC19
:10321000A8680028F4D100F013FBAB78002613F067
:1032200001032E700FD0094B2946D3F8984024B1E2
:103230002046FFF78DFA3046DFE7D3F88000FFF72E
:103240002EFA2046D9E71846D7E700BF240C002401
:10325000836810B504465BB1FFF74FFF40B12046CD
:1032600000F080FA0022BDE81040114600F0FEBBDD
:1032700010BD38B5054610B10378F62B07D02846A7
:103280006FF0030100F008FF6FF0030038BD8468A1
:103290003CB100F067FA0122002100F0E7FB0020BA
:1032A000F4E7FFF73BFF38B928466FF0100100F054
:1032B000F3FE6FF00200E9E72046E7E738B50D4678
:1032C000044610B10378F62B07D020466FF00301B7
:1032D00000F0E2FE6FF0030038BDFFF70EFF68B9A3
:1032E00075B12946632000F069FC20B1064B2046E9
:1032F000596900F025FA6FF00100EDE70020EBE7D7
:103300006FF00200E8E700BF240C002410B504466B
:10331000EFF3058333B100206FF0050100F0BCFE30
:10332000002010BDFFF7DEFE0028F4D12046DFF8B4
:1033300008C000DFF5E700BF4D31040810B50246B4
:103340000C46EFF3058343B182B910466FF00301D9
:1033500000F0A2FE6FF0030010BDFFF7C3FE0028CF
:10336000F2D11046DFF820C000DFF5E71378F62B26
:10337000EBD1002CE9D11046FFF7BFFE002814BFA7
:1033800000206FF00200E7E7BD32040810B50446E4
:10339000EFF3058343B184B920466FF0030100F0D9
:1033A0007BFE6FF0030010BDFFF79CFE0028F2D1FA
:1033B0002046DFF830C000DFF5E72378F62BEBD1AD
:1033C0002046FFF7ABFE20B1204600F0B7F8002002
:1033D000E9E720466FF0100100F05EFE6FF002009A
:1033E000E1E700BF73320408024608B5EFF3058336
:1033F0003BB110466FF0050100F04EFE6FF0050086
:1034000008BDFFF76FFE0028F3D11046DFF804C0B7
:1034100000DFF5E7E131040810B5D0E85F3F5A1C42
:10342000914200D80022C0E8542F04B1F5E798B2C9
:1034300010BD000038B51C4C00F0C4FEE368013339
:10344000E36000F0BBF9002000F0FAF9236D03B14E
:103450009847226C32B3A369E06BD969984202D0D5
:10346000E36301B9DA61DA69C2B9237A022B19D1AF
:10347000656ABDB1E36B95F9202093F920309A423B
:1034800010D1284600F077F9E06B00F08FF928465C
:1034900000F0CEF9236CE563EB6103E0013ADA61F9
:1034A000002AE2D038BD00BF240C002470B5224CA5
:1034B00004F1560504F15A06B4F85410D5E85F3FFC
:1034C00013B9BFF32F8F04E05A1EC5E8502F00B187
:1034D000F4E79BB25BB33046FFF79EFFE36D53F812
:1034E000200020B30378F13B082BE5D801A252F865
:1034F00023F000BF19350408B93404081F35040847
:10350000B9340408B93404082335040827350408FD
:10351000B93404082B350408236E9847CCE7636E52
:10352000FBE7A36EF9E7E36EF7E7236FF5E700200B
:10353000BDE8704000F084B9240C002470B5164C2E
:103540000546B4F8541004F15602D2E85F3F9942A0
:1035500002D8BFF32F8F04E0581CC2E8560F06B103
:10356000F3E79BB2994205D829460220BDE8704096
:10357000FEF7E5BF04F15800FFF74EFFE36D43F897
:103580002050637A23B9054B4FF080525A6070BDCA
:103590000123A372FBE700BF240C002400ED00E030
:1035A000EFF310832BB9EFF31180003818BF01201F
:1035B0007047012070470378F12B00D07047C06836
:1035C000F9E7000010B5C469621CD0E904310CD1E0
:1035D00003B1596142691AB113610023436101E0EB
:1035E000074A13630023C36110BD1BB1DA69596137
:1035F0002244DA614269002AEED1014AD362F1E73E
:10360000240C002401230A4A90F9201043701C3234
:10361000936810B51BB193F920408C4205DCC0E9DA
:103620000232906003B1D86010BD1A469B68F1E782
:10363000240C0024014B5869704700BF240C00245F
:10364000002310B50380044683789A0708D513F049
:10365000100F016B0E4B0FD0D3F88400FFF778F8F2
:10366000A378DB0712D50A4B2146D3F8880038B17E
:10367000BDE81040FFF76CB8586FFFF710F8EFE7A0
:10368000D3F88000BDE81040FFF709B810BD00BFB7
:10369000240C002408B500F00FFDDFF810C000DF97
:1036A0004FF0FF31002000F0E5FCFEE7D53A0408BA
:1036B000C2780346D20701D4FFF7C2BF04220549EE
:1036C00042700022C2604A6B826002B1D0604B63DC
:1036D000704700BF240C0024930710B502F00104CA
:1036E00022D400F1280384B153E8000F00EA01025C
:1036F0008A4203D0BFF32F8F002005E020EA0102A9
:1037000043E8002404B1EFE710BD53E8000F08427E
:1037100003D1BFF32F8F002005E020EA010243E828
:10372000002404B1F1E7EFE7806A01EA00031CB16D
:103730008B4218BF0020E7E7002B08BF0020E3E71B
:1037400091F92020836810B51BB193F92040944271
:1037500005DAC1E90230816003B1D96010BD1846B5
:103760009B68F1E783689A68826002B1D0600022AA
:103770001846DA607047C2682AB18368936003B163
:10378000DA600023C360704710B5044664B1237843
:10379000F12B07D0FFF7EFFF01462046BDE81040B0
:1037A000FFF7CEBFE468F1E710BD0000012301463A
:1037B00043700148FFF7C4BF400C002438B5164DD4
:1037C000EC6A44B3E369013BE36123BB6378732B89
:1037D00006D009D8532B0BD003F0DF03432B0DD1B8
:1037E0002046FFF7E8FE09E003F0EF03832BF6E73E
:1037F00020462146FFF7DFFEFFF7EEFB2046FFF7EE
:10380000BAFFFFF7D3FF246924B1E369002BDDD0B1
:1038100000236361EC6238BD240C002490F8223050
:10382000826B13F0100F0CBF6020202010447047F3
:1038300002234370014B9861704700BF240C0024A1
:1038400070B5124D04462E7A696990B9022E0FD1D7
:103850006C6A6CB194F9202091F920309A4207DD0E
:103860002046FFF788FF0846FFF7CCFE6670AC6184
:1038700070BD022E05D190F9202091F920309A4296
:10388000F1DC2046BDE87040FFF790BF240C002417
:103890002DE9F04F85B08046029128B96FF0030101
:1038A000002400F0E7FBABE0002A48D0946896695A
:1038B000D2E900A3D2E904B5019344B1A10702D132
:1038C000D268432A06D86FF008010020E8E7D268E2
:1038D000002AF8D1BBF1000F08D01BF0070F02D16E
:1038E000002D40F0A9806FF00A01EEE72EB1721EA4
:1038F000372A03D96FF00B01E7E71826002D40F0B7
:103900009F804CBB534CD4F88800F0B1FEF706FF03
:103910000446002800F08D800127DFF83891BBF1C4
:10392000000F32D1D5B94C4AD9F88400556DA8B1F1
:10393000FEF7F4FED0B147F01007834621E092462F
:103940009346182615460192DCE701224421D4F85B
:103950008000FEF76FFEDBE70027DEE75A462946C8
:10396000D9F87400FEF766FE0028E6D1002F55D086
:10397000D9F88820002A47D0214600241046FEF7B7
:10398000E7FE47F00207002C53D040F2F112019BF2
:1039900076B2FD2122800022E370A770C4F804A053
:1039A00084F8206084F8216061846563C4E90222A0
:1039B000C4E90422C4E90622C4E90922C4E90B2BA4
:1039C000A5F140025A44C4E90E28244ACBF800204D
:1039D000214A1268530723D4A36B342200211846CE
:1039E0000CF0F6FD1E4A1F4BC0E90D284FF0807207
:1039F000C263029A02622046C9F86030FFF720FFD6
:103A0000204605B0BDE8F08F2146D9F8800003922A
:103A1000FEF745FE039A14469346B2E73C46B0E7EC
:103A200025F00302CC210BF10400443A0CF0D0FD48
:103A3000D2E76FF0040148E7002E7FF458AF182654
:103A40006A077FF450AFA5F14801074A91427FF61B
:103A500058AF48E7240C002450550508A52E5AE21B
:103A600095360408913A0408B7FFFF7F38B505463C
:103A70001446FFF7D3FE01602846FFF7A3FD1CB1F3
:103A8000BDE83840FFF7DCBEBDE83840FFF78EBE2A
:103A900010B543780446332B0CD1416A90F82320AB
:103AA000FFF71AFE014628B120460022BDE810406B
:103AB000FFF7DCBF10BD10B50446806918B10022C5
:103AC0001146FFF7D3FF6378232B02BFA3680022C0
:103AD0009A6110BD70B50F4C267A022E18D1636A18
:103AE000B3B16569E86AFFF755FA2846FFF7E3FFC7
:103AF00004F11C00FFF736FE4670A061EFF3098366
:103B0000AB63002328466361BDE87040FFF7D0BD7A
:103B100070BD00BF240C002410B5044610B103781A
:103B2000F12B07D020466FF0030100F0A3FA6FF0ED
:103B3000030010BD437803F00F03022B1ED0032BAC
:103B40002BD0012B2ED1FFF716FEE06AFFF722FAE9
:103B50002046FFF7B0FF6178022926D11548FFF70C
:103B600001FE154B41709861EFF30982A2630022B8
:103B70005A612046FFF79CFD0020DAE70E4B1A7AC7
:103B8000022A02D15B6A002BDFD16FF002012046CE
:103B900000F070FA6FF00200CBE7FFF7ECFDFFF7E3
:103BA00011FDD2E76FF00201F2E70020FFF748FEB7
:103BB000DFE700BF400C0024240C002438B51F4C64
:103BC000237A022B35D1636A002B34D063694A1CF7
:103BD000587016D1226B002172B94FF0FF30C3E943
:103BE0000421D86159B10B611548FFF7BBFD0223D1
:103BF0004370A061012038BD11461269ECE72363D0
:103C0000F2E7E26A002012B1D569A9420BD2D9616C
:103C1000C3E9042058B10361002AE5D0D06953619B
:103C2000401AD061E0E71046491B1269EBE7E362F6
:103C3000F2E70020DFE71846DDE700BF240C002490
:103C4000400C002438B50D4C00210D48A26DFFF743
:103C50001FFE0C4D636EA8625BB1984758B9E26DC8
:103C6000E96C206EFFF714FEA864003818BF01202D
:103C700038BD0120FCE70020FAE700BF50550508D9
:103C8000E53F0408240C002410B50446EFF3058337
:103C900033B100206FF0050100F0ECF9002010BDF9
:103CA000FFF77EFC0028F4D12046DFF808C000DFD3
:103CB000F5E700BF9138040808B5EFF3058313B1A9
:103CC000054B586908BDFFF76BFC0028F8D1DFF8F9
:103CD0000CC000DFF6E700BF240C002435360408D2
:103CE00010B5044600F0F4F9EFF305833BB120462C
:103CF0006FF0050100F0BEF96FF0050010BDFFF791
:103D00004FFC0028F3D12046DFF804C000DFF5E7C0
:103D1000193B040830B50C4D00226B6C13B11C69C3
:103D20008C420AD90161C0E902231BB11C69986069
:103D3000641A1C612AB1D06030BD1A46091BDB68C9
:103D4000ECE76864F8E700BF240C00242DE9F0419B
:103D5000184D6C6C54B3236901276E69013B2361D4
:103D6000236913BBE3680BB1A2689A606B640023FC
:103D700004F11801E86C1A46FEF73AFF58B12146E3
:103D80000320D5E905836B61FEF7D9FB6B6913B995
:103D9000B04508BF0026E378012B09D161692046B0
:103DA000FFF7B8FF6C6C002CDAD16E61BDE8F081D2
:103DB0006770F7E7240C002408B5FEF707FF18B971
:103DC000034B044A1A6508BD4FF0FF30FBE700BF04
:103DD000240C00244D3D0408044607B54FF0FF3382
:103DE000002269462046FEF743FF0028F6D1DDE9B0
:103DF00000309847F2E7000008B5094A094B1A60FD
:103E0000094B9B1A094A1360094A0A4B1A600A4B6C
:103E10009B1A0A4A136000F051F800F083F800BFC3
:103E200000FC072424300024000008242030002453
:103E300038C000241CB4002400FC072418B400245B
:103E400038B50E480B250E4B1C24456003600D4B06
:103E5000C4608360FFF7E6F80B4B18600B480C4B0F
:103E6000C460C0E900350B4B8360FFF7DBF80A4BF9
:103E70001860BDE838400BF0ADBE00BFF02F002445
:103E8000245605080430002400300024C02F0024EC
:103E900031560508D42F0024D02F0024FDF796BEFC
:103EA000024B4FF0FF311868FFF7D4B80030002400
:103EB000014B1868FFF7E6B80030002408B502F09F
:103EC000E7FC0C4B0C4998684FF00053C21802F104
:103ED0006042126843F8042B8B42F7D1054B4FF038
:103EE00000529A6009F000FE0AF0CAFCBDE80840E2
:103EF00000F015B800ED00E0980200207047704710
:103F000008B500F043F8FFF7F9FFFFF799FFFFF757
:103F1000F6FF03F049FCBDE80840FFF7BFBFFEF71E
:103F200019BB0000114C124B23614FF40043636135
:103F30004423E3600F4BA3601823A3610E4B07B526
:103F4000224600210D482360FFF79EFE034628B954
:103F500022460B4900900B4803F02EFCFEF712FBA3
:103F6000002309491A460093F5E700BF28B0002452
:103F7000283000244CB000243B560508013F0408BB
:103F8000405605081D0101805C5605081FB5064B0B
:103F90006C460FCB84E80F002046FFF743F8034B35
:103FA000186004B010BD00BF8456050890B000240E
:103FB00073B506460C46154603F0F8FB58B90634AF
:103FC000324628462ABF054B054953F824100023E2
:103FD000009303F0F1FB02B070BD00BF4858050824
:103FE0009C57050808B500F0F7F8000007B5002356
:103FF000411E024600930023042919D8DFE801F08E
:1040000003080C10140001220B490C4803F0D4FBE8
:1040100002220B490B48F9E703220B490B48F5E74D
:1040200004220B490B48F1E705220B490B48EDE749
:104030000B490C48EAE700BF9456050825010280A9
:10404000B556050826010280DA56050827010280C8
:104050000F570508280102804A5705082A010280E7
:104060008A570508000102800146014AFFF7A0BFF8
:1040700031010180014AFFF79BBF00BF320101807F
:10408000014AFFF795BF00BF37010180014AFFF7E2
:104090008FBF00BF3301018011F1110F02D0024A1E
:1040A000FFF786BF704700BF34010180014AFFF768
:1040B0007FBF00BF3801018010B5FFF7FDFD034B46
:1040C0001B6813B1BDE81040184710BDB0B0002404
:1040D000024B1B6803B11847704700BFB0B0002403
:1040E000024B987A003818BF01207047240C002436
:1040F00008B5FEF75DFA0022064903F06BFCC31C0D
:1041000004D98B220449054803F014F9BDE808409E
:10411000FEF762BAE140040883580508955805087F
:10412000B0F57A7F10B50C4604D0322219491A48EE
:1041300003F000F902F0C4FD0028184A16DB00F174
:104140006043F02103F5614383F80013916800F1A7
:10415000100341F82340BFF34F8F926852F8233089
:104160009C420AD03F220B490D48E1E700F00F03C3
:10417000F021043B13441976E8E7002807DB01230C
:10418000410900F01F00074A834042F82130002017
:1041900010BD00BF83580508C258050800ED00E0B7
:1041A000CF58050800E100E008B503F09BFBBDE82F
:1041B000084002F0A0BE0000014B186802F0D0BE1B
:1041C00048B30024014B186802F08CBE48B30024A9
:1041D00008B502F075FD08BD024C08B52368984784
:1041E000FCE700BFC80C002403680BB10846184761
:1041F0007047CB68C3600BB15B681847704700001D
:10420000044B0022C3E900229A601A61024ADA6074
:10421000704700BFB4B00024E941040838B50D462A
:1042200000210446102200F8011B0CF0D1F92046B1
:10423000658238BD42F60211024808B5FFF7EEFF6D
:1042400008BD00BFC8B00024C36810B52BB94FF437
:10425000FD720449044803F06DF81B68BDE8104086
:10426000184700BF205905082B59050810B504460A
:1042700004F048F9204610BD10B5084C204604F063
:1042800001F900232046064A84F8243023630549B7
:10429000C4E90A33BDE8104003F0C4BCDCB000241C
:1042A000000000246D420408F8B50546064655F89E
:1042B000044B8CB90D4F386818B14FF0FF31FEF741
:1042C000C9FE346824B928462C4604F0DBF8356072
:1042D000386808B1FEF7D6FEAC4204D08B22044900
:1042E000044803F027F82046F8BD00BF90B0002432
:1042F0005B5905086A5905080368012200211B69FA
:104300001847036800221B691146184707B501903A
:1043100003F0BAF80121019809F098F903B05DF8AB
:1043200004EB03F0C7B807B5019003F0ADF8002126
:10433000019809F08BF903B05DF804EB03F0BAB80B
:1043400007B5CDE9001003F09FF8DDE9001009F092
:1043500079F903B05DF804EB03F0ACB870470000E6
:1043600070B500F10C060446B0F95820B0F95610AB
:10437000304609F0BBFFD4E918530DB9DA070ED562
:104380005A1094F8681004EB6300DB0748BFA35889
:10439000B4F96A2048BF5D59B4F96C30A847216D63
:1043A000304609F0C7FE224630460249BDE870405B
:1043B00008F048BBFD46040873B51E46C36D0446AD
:1043C0000D462BB140F235122B492C4802F0B2FFBA
:1043D0002B490192C0E9181303681B689847019A9A
:1043E00084F86850A4F86A20A4F86C60042D0BD8F7
:1043F000DFE805F01603111619004FF0FF33012115
:1044000004F10C0008F016FC236820465B6802B03B
:10441000BDE870401847134602214FF0FF32EFE726
:1044200033462946ECE70123013284F884300ED06C
:104430001C2003F035FEB4F96A6005461C220021F9
:104440000CF0C6F83146284601F05AFF2567B4F94A
:104450006C300133D8D01C2003F022FEB4F96C601C
:1044600005461C2200210CF0B3F8002231462846F4
:1044700001F049FF6567C7E7A6590508B559050862
:10448000B9430408884270B504460D460AD0FBF7CC
:10449000D9FFEB68E3602BB1294620465B68BDE895
:1044A0007040184770BD00002DE9F0419846184B48
:1044B0000025044603600F46164B16462946242263
:1044C00043600C3040F8045C0CF082F840F20113B9
:1044D0002046E563A4F854304FF6FF73A4F85670F5
:1044E000A4F85860656684F86850A4F86A30A4F8A7
:1044F0006C30C4F8805084F88450C4E91358C4E97F
:104500001755C4E91E55FFF72BFF2046BDE8F08183
:10451000D45905086143040870B506460D460446A3
:1045200056F80C3B1B6898473046294609F002FEB6
:104530002368204625655B68BDE8704018477FB555
:1045400005460446019355F80C6BCDE90221366807
:10455000B04728460399DDE9013209F053FE23688C
:1045600020465B6804B0BDE87040184738B5054682
:10457000044655F80C3B1B689847284609F072FD25
:1045800094F88430054673B1626F62B10A490B4BEF
:10459000D1F894009842FBD1136855B99268136022
:1045A0004FF440734B61236820465B689847284668
:1045B00038BDD2681B04F2E7006402580003008093
:1045C00038B50546044655F80C3B1B689847284605
:1045D00009F058FD94F88430054643B1236F00F08C
:1045E00001055A681B6812681A4218BF0025236823
:1045F00020465B689847284638BD03682DE9F0419E
:1046000004461B6815460F46984794F85430EE1C34
:1046100003B17DB194F855300BB1012D0AD0394664
:1046200004EB0610FFF72EFF236820465B68BDE809
:10463000F041184702F028FFFA6804EB061604F16F
:104640000C08F36872B10BB903F0F6F9394630463D
:10465000FFF718FF01222946404608F0FFF902F053
:1046600029FFE1E70BB103F0FDF93046FBF7EAFE65
:104670000022F260EFE7000030B5154B85B0002551
:104680000446036069462A460395FFF7B6FF68466D
:10469000FBF7D8FE0122694620460395FFF7ADFFE0
:1046A0006846FBF7CFFE94F8543013B994F85530B0
:1046B0001BB104F10C0009F0BBFB04F14000FBF757
:1046C000C1FE04F13000FBF7BDFE204605B030BD51
:1046D000D459050810B50446FFF7CEFF88212046BF
:1046E00003F012FD204610BD0C3008F059BA10B589
:1046F0000C460C3008F08AFA204610BD033100EB5E
:10470000011008B5C3680BB1FFF79EFD08BD036833
:1047100070B504461B680D46984794F85430AB4278
:104720002AD065B194F855304BB9A268636851102E
:1047300004EB6200D20744BF6258D358984702F096
:10474000A3FEFDB1E36B5BB104F13000FFF77CFD2C
:1047500003F072F90122002104F10C0008F07EF947
:1047600002F0A8FE84F8545035B994F855301BB9BE
:1047700004F10C0009F05CFB236820465B68BDE88F
:10478000704018472A46294604F10C0008F066F9E3
:10479000E36B002BE4D003F065F9E1E7036870B543
:1047A00004461B680D46984794F85530AB422AD012
:1047B00065B194F854304BB9A2686368511004EBAA
:1047C0006200D20744BF6258D358984702F05CFE9B
:1047D000FDB1E36C5BB104F14000FFF735FD03F080
:1047E0002BF9012204F10C00114608F037F902F010
:1047F00061FE84F8555035B994F854301BB904F172
:104800000C0009F015FB236820465B68BDE870408A
:1048100018472A46012104F10C0008F01FF9E36C47
:10482000002BE4D003F01EF9E1E7437D10B5044608
:104830001BB1037D0BB103F015F9204610BD13B574
:10484000044601A802F078F8637D53B9237D0BB1CB
:1048500003F0F2F8206901F0F7FF0123C4E9000139
:10486000637501A802F070F802B010BD37B50446B8
:1048700001A80D4602F060F800230022C4E90023DD
:104880006B7D4BB1286901F0DFFFD5E90032C01A1A
:1048900061EB0201C4E9000101A802F055F82046CD
:1048A00003B030BD30B585B00D46044603A802F014
:1048B00043F829466846FFF7D9FF009B03A8D5E9CE
:1048C00002219B18019A42EB0102C4E9003202F076
:1048D0003BF8204605B030BD13B5044601A802F0F0
:1048E0002BF8206901F0B0FF00220023C4E9000189
:1048F000C4E9022301A802F027F802B010BDD0B528
:104900000023002600270446016102754375C0E9B3
:104910000067C0E90267FFF7DFFF2046D0BD10B592
:10492000044601F0A7FF012201462046FFF7E7FFFA
:10493000204610BD10B5044601F012FD00220146CC
:104940002046FFF7DCFF204610BD03681B681847B0
:1049500010B5084B04460022084623600023A161DD
:104960000549C4E902230023C4E9043301F0FCFE35
:10497000204610BDEC5905084B49040807B500F165
:1049800008010090806901F02CFF03B05DF804FB82
:1049900000F10801806901F03CBF002070476FF012
:1049A0001C0070476FF01C0070476FF015007047D7
:1049B0006FF01500704701207047012070470020FC
:1049C00070470020704770B511F0010405468EB2A3
:1049D00004D0FFF7CBFD041E18BF0124F30605D554
:1049E0002846FFF7EDFD08B144F01004204670BDE5
:1049F000A0F18800FFF7E7BF08B5FFF788FE0020A9
:104A000008BDA0F18800FFF7F7BF08B5FFF7C6FEA5
:104A1000002008BDA0F18800FFF7F7BF034B10B5D9
:104A200004460360FFF728FE204610BDF85905082C
:104A3000A0F18800F2E700BF10B50446FFF7EEFFD3
:104A40008C21204603F060FB204610BDA0F18800B9
:104A5000F2E72DE9F04106460D461746C2B102F0D5
:104A600010FD80F0010313F0FF0403D033683046DB
:104A70001B68984705EB070815F8011B3046FFF740
:104A800036FEA845F8D11CB1336830465B689847BC
:104A90003846BDE8F081A0F18800FFF7DABF38B5ED
:104AA00004460D4662B103681B6898472046FFF72D
:104AB0001BFE2870236820465B689847012038BD9C
:104AC0001046FCE7A0F18800FFF7E9BF10B50446E7
:104AD000FFF7EAFC044B204603F10802443322604E
:104AE000C4F8883010BD00BFF059050830B505681E
:104AF00085B0044601932D68CDE90221A8472046E0
:104B00000399DDE90132FFF757FC236820465B6813
:104B100005B0BDE83040184730B5044685B002F016
:104B2000B3FC04F1080568462946FFF762FB2846F6
:104B3000FBF788FC0023E069C4E9053308B103F002
:104B400029FD02F0B7FC039B13B11B686846984728
:104B50006846FBF777FC05B030BD00000022044931
:104B600042600160C2610284C0E90522704700BF53
:104B7000CC5A0508074B10B503600446836923B17E
:104B800026220549054802F0D5FB0830FBF75AFC00
:104B9000204610BDCC5A0508995A0508A55A0508A3
:104BA00070B504460E4602F06FFCA56965B104F1CC
:104BB0000800FBF747FC0023012284F821606361B1
:104BC00084F82020E361A36102F074FC2DB121463A
:104BD0002846BDE8704000F02EB970BD08B103F062
:104BE00059BC02F051BC08B103F072BC02F062BCC7
:104BF0002DE9F041044686B00E46174602F044FC0B
:104C0000A56902F057FC35B301AD0021284603F039
:104C10009BFC02F039FCD4E9068323B139220F4909
:104C20000F4802F087FBE56102F044FCB8F1000F89
:104C30000ED03946284603F08FFC48B93046FFF7BE
:104C4000CDFF20460121FFF7ABFF3046FFF7CBFF3A
:104C5000284603F0A2FC06B0BDE8F081995A050889
:104C6000B35A050800220160C0E901220122027343
:104C700070477047037B33B1D0E900231268934239
:104C80008CBF00230123184670472DE9F04101260F
:104C90000468002306FA01F1271D82EA060E17F8C0
:104CA00013400C4204D004F030043AB1102C07D168
:104CB0000233202BF3D14FF0FF300DE0002CF7D062
:104CC00042EA0305D0F808C006FA05F818EA0C0F06
:104CD000EED1202C02D02846BDE8F0814EEA030434
:104CE00006FA04F414EA0C0FF5D0E1E770B50D46AE
:104CF000114604461E462A46FFF7C7FF002802DA7F
:104D00000020207370BD42082568636805EB8205AA
:104D1000E98819446B7906FB031301216360814024
:104D2000A36842EAC0100B43C0B2A360EAE713468F
:104D30000A460121FFF7DABF13460A460021FFF7B2
:104D4000D5BF13B504460A4601910021FFF7EFFFD6
:104D5000019A0021204602B0BDE81040FFF7ECBFE9
:104D60000022C0E9002270477047006870470023A6
:104D70000B60436813B90160416070471960FBE73D
:104D800003682BB11A6802B94260026000221A60FF
:104D90001846704710B50468002223468B420ED196
:104DA0000AB10B6813608C4204BF0B680360436850
:104DB0008B424FF0000308BF42600B6010BD002B18
:104DC000FCD01A461B68E9E710B50446FFF7C8FF98
:104DD000204610BD08B5FFF7C8FFB0FA80F04009C3
:104DE00008BD70B505462846FFF7BFFF044678B1F9
:104DF00050F8043C061F9B683046984740B128464F
:104E0000FFF7BEFF54F8043C3046DB689847EAE7FA
:104E100070BD70B504460D46FFF7A7FF0646291D75
:104E20002046AC61FFF7A3FF26B92046BDE87040DD
:104E3000FFF7D7BF70BD70B50C460546FFF795FF6D
:104E4000064604B1043421462846FFF7A3FFA642D4
:104E500004D12846BDE87040FFF7C3BF70BD10B550
:104E600004462046FFF781FF28B150F8043C04387F
:104E7000DB689847F5E710BD10B50446FFF7EFFF74
:104E80002046FFF771FF204610BD7047704703684A
:104E90009B6D184770B5164B86B090F82043019370
:104EA0000023416805AEADF808308DF80A3040F2B5
:104EB00001230289ADF8123040F203138DF80B4044
:104EC00001ACADF8143000F10A0303911D46ADF8B2
:104ED00010202246083303CAB24243F8080C43F8B4
:104EE000041C1446F5D1128828461A8006B070BDFD
:104EF0001201000200487047B45D05080048704781
:104F0000EC5D050800487047B85D0508004870472B
:104F1000FE5D050800487047E45D050800487047DD
:104F2000CE5D0508036810B504465B6F9847D4F85A
:104F3000EC0203681B6F9847236820469B6FBDE80F
:104F40001040184738B5D0F834330446012B10D13F
:104F50000025D4E9C93000F0010203B94AB141107B
:104F600004EB6000C4E9C9550AB16258D3589847A8
:104F7000EFE7D4F834332BB940F2C662054906484E
:104F800002F0D8F9013BC4F83433BDE8384002F0F0
:104F900091BA00BFF95A0508075B050808B5D0F8B3
:104FA00034332BB940F2CD620249034802F0C2F912
:104FB00008BD00BFF95A0508075B050810B504468F
:104FC00002F062FAD4F834330133C4F834332BB925
:104FD0004FF4D7620249034802F0ACF910BD00BF9C
:104FE000F95A0508075B0508036837B50D46DB6FFE
:104FF0000446984715F0700F01D12B0706D1002306
:10500000104911481A46009302F0D6FB6B00182095
:1050100003F01E0343EAD5118B1E00FB034393F8F4
:1050200031206AB10139013A00FB014083F8312097
:105030000369043023B11B6803B0BDE83040184752
:1050400003B030BD135B050804011580036873B518
:105050000446DB6F9847B4F8F8120B0A022B25D0F0
:10506000032B56D0012B04D1236820461B6B984795
:1050700008B9002018E0236820461B6B9847067883
:10508000122EF6D1236820461B6B98474578012DD8
:10509000EFD123682046C4F804631B6B9847C4F81B
:1050A0000003284684F8085302B070BDC9B22368D3
:1050B00020465B6B019198470028DAD02368204690
:1050C00001995B6B984703780199092BD1D123682B
:1050D00020465B6B984743780199022BC9D123681E
:1050E00020465B6B98472368857820465B6B019967
:1050F0009847C3780199204645EA03252368C4F8F8
:1051000004535B6B9847C4F80003012084F808033C
:10511000CAE7C9B20529ACD8DFE801F0030F1923AB
:105120002D37236820469B6B98470378C4F80433D7
:1051300023689B6B20469847E5E723682046DB6B96
:1051400098470378C4F804332368DB6BF2E72368DD
:1051500020461B6C98470378C4F8043323681B6C03
:10516000E8E7236820465B6C98470378C4F804336B
:1051700023685B6CDEE7236820469B6C98470378C6
:10518000C4F8043323689B6CD4E723682046DB6CA7
:1051900098470378C4F804332368DB6CCAE70B78BC
:1051A000DB0913700B78C3F3411353700B7803F0D2
:1051B0001F0393704B78D3704B8893808B88D38078
:1051C000CB88138170470000036870B504465B6F9D
:1051D0000D46984794F80C33022B05D040F23D124F
:1051E0000849094802F0A6F8084B204684F81053F5
:1051F000C4F824330023C4F828332368BDE8704082
:105200009B6F1847F95A0508325B0508F1560408E8
:1052100038B503680446DB6F984794F8083313B138
:105220000025284638BDD4F8EC0203685B6C98472B
:10523000D4F804239042F3D8D4F80013121A01448E
:10524000C4F80423C4F80013A2B9022394F80A5343
:1052500084F80C3345B1236804F53D71204684F889
:105260000A239B6E9847DCE701212046FFF7ACFF3D
:105270000125D6E7D4F8EC02D4F820430368A24213
:105280001B6C28BF22469847F2E70000036813B55D
:105290000446DB6F984794F81C33012B06D8002393
:1052A0000F491A4600930F4802F086FA94F80C331F
:1052B00023B100230C491A460093F4E794F80B330A
:1052C000032B0BD02046FFF7A3FF38B9D4F8EC022C
:1052D0000368DB6C02B0BDE81040184702B010BD97
:1052E0005D5B05080E011580855B050838B5036810
:1052F0000446DB6F984794F80833012B3BD1D4F870
:10530000045335B994F809330BB901252CE084F81E
:105310000953D4F82033D4F8EC029D42D4F800139A
:1053200028BF1D4603682A469B6C9847D4F8003373
:105330002B44C4F80033D4F804335B1BC4F80433A3
:10534000002BE2D194F80923002ADED1022394F83D
:105350000A5384F80C334DB1236804F53D7120469F
:1053600084F80A239B6E9847284638BD01212046C1
:10537000FFF72AFFC9E70025F6E70000036813B529
:105380000446DB6F984794F81C33012B06D80023A2
:105390000B490C481A46009302F00EFA94F80B33AE
:1053A000032B0BD02046FFF7A1FF38B9D4F8EC024D
:1053B0000368DB6C02B0BDE81040184702B010BDB6
:1053C0005D5B05080E011580036870B504465B6FD0
:1053D0000D46984794F80C33032B05D04FF4C37255
:1053E0000849094801F0A6FF084B204684F81053ED
:1053F000C4F824330023C4F828332368BDE8704080
:105400009B6F1847F95A0508CF5B0508AF61040880
:10541000036810B50446DB6F9847012004F21D3382
:10542000C4F80403C4F8003384F8080310BD03680B
:1054300010B50446DB6F984794F81C33042B05BF66
:10544000B4F82E3301200020A4F8FA3201BF04F58D
:105450004C73C4F80403C4F8003384F8080310BD87
:10546000036810B5DB6F044698470423204694F880
:10547000F82284F80C332368B4F8FA121B6F9847AB
:10548000012010BD036870B504465B6F0D46984758
:1054900094F80C33042B05D04FF4EB7208490948FB
:1054A00001F048FF084B204684F81053C4F8243319
:1054B0000023C4F828332368BDE870409B6F184769
:1054C000F95A0508FB5B050881570408036810B505
:1054D0000446DB6F984794F81C33042B02D0B4F8D1
:1054E000FA3233B994F8F632012B25D0022B02D0D0
:1054F00023B300201FE0B4F8FA2222F08F03002B20
:10550000F7D112F00F030CD0530003F01E0343EA4F
:10551000D2131822023B02FB034393F83030C3F34B
:105520004003074A012013800223C4F80023C4F873
:10553000043384F8080310BD0023F2E70123F0E7E9
:1055400010B10024036810B5044690B0DB6F984793
:10555000D4F8EC02D4F8202369460368DB6B984743
:1055600004F53D7269462046FFF719FE00231146F7
:10557000C4F80833C4E9C033012384F80C3323682A
:105580005B6E984710B010BD036813B50446DB6F1F
:10559000984794F81C33012B06D800230A490B487E
:1055A0001A46009302F008F9012394F80C2384F8BA
:1055B0002C332AB9204602B0BDE81040FFF7C2BF25
:1055C00084F82D3302B010BD5D5B05080E01158017
:1055D0002DE9F0411D46036804460F465B6F1646F1
:1055E000984794F80C33012B05D040F2BA220A49AF
:1055F0000A4801F09FFE0A4B204684F81073C4F855
:1056000024330023C4F828332368C4E9C5659B6F9D
:10561000BDE8F041184700BFF95A0508235C0508AA
:1056200023600408036870B50446DB6F9847B4F83C
:10563000FC2292B394F8F41294F80833012925D18E
:10564000012B06D0D4F8EC020368DB6CBDE8704097
:105650001847D4F80433934201D9C4F8042301292C
:10566000D4F8043326D1934208D2D4F82023B3FBD4
:10567000F2F002FB10330BB984F809130223204621
:1056800084F80B33BDE87040FFF730BE002BD9D152
:10569000D4F804339342E2D0D4E7D4F8EC02D4F83F
:1056A00004230368002AD0D103219B6C84F80B13D8
:1056B00011460EE00122D4F8EC0284F80B230168B5
:1056C000D4F820230D6C9A42D4F8001328BF1A4650
:1056D0002B46BDE870401847036810B5DB6F0446E1
:1056E0009847002384F82D33032384F80B3310BD2F
:1056F000036810B5DB6F04469847002294F8103316
:1057000084F80C2394F82D2322B12046BDE81040E4
:10571000FFF7E2BF33B9D4F8EC020368BDE81040EC
:10572000DB6C184794F80B33012B0AD10323D4F810
:10573000EC0284F80B3303689B6C1146BDE8104003
:105740001847022B07D10323D4F8EC0284F80B335B
:1057500003681B6CF1E710BD036810B5DB6F0446EE
:105760009847002384F82C3394F80C3323B920464F
:10577000BDE81040FFF7B0BF012384F82D3310BD02
:10578000036810B5DB6F04469847002294F8103385
:1057900084F80C2394F82D2322B12046BDE8104054
:1057A000FFF79ABF63B1B4F8FA322046A4F82E335B
:1057B000B4F8F83284F83033BDE81040FFF732BF58
:1057C000D4F8EC020368BDE81040DB6C18470368AE
:1057D00010B504465B6F984794F8F03283B9D4F85B
:1057E000EC02214603689B689847D4F8EC024021FC
:1057F00003689B6B98470123C4F8200384F8F032B8
:10580000236820469B6FBDE81040184738B50368F1
:1058100004465B6F984794F81C5323682046EDB20A
:105820009B6F98472B1F5842584138BD036810B5ED
:1058300004465B6F98472046FFF7C9FF94F8F132A2
:105840003BB9D4F8EC0203685B699847012384F8FC
:10585000F132236820469B6FBDE8104018470000D6
:105860002DE9F04F904685B0026805460391526FCE
:105870000293DDF838909047039911F0700F03D12F
:1058800011F00F0F029B06D100232B492B481A461B
:10589000009301F091FF95F8F2723FB92B6828460A
:1058A0009B6F9847384605B0BDE8F08F4C004FF02D
:1058B000180B04F01E0444EAD114A61E0BFB065A72
:1058C0009AF83020D20705D54FF48E621C491D4846
:1058D00001F030FDB8F5806F04D940F271421849EB
:1058E0001948F5E7D5F8EC020268176D4246B8474B
:1058F00007460028D2D0601E0BFB005004304845FC
:105900000BD00290FAF79EFDD9F80C30CAF8283077
:105910001BB15B68494602989847182303FB06565B
:1059200096F83030A6F82C8043F0010386F830302A
:10593000002386F83130B1E7135B050804011580B8
:10594000F95A0508465C0508685C0508D0F8EC02C1
:1059500003685B6B18470000F8B504460F46194909
:10596000002540F81C1B04F53B710646F56018360F
:10597000B142FBD1E3800021BDF81830A2804FF482
:10598000347223810AF024FE2822002104F53D70A0
:105990000AF01EFE01232046C4F8EC72A4F8F0526F
:1059A00084F8F252C4F8345384F8305384F81C332A
:1059B00084F81D5384F81E53C4E9C855C4E9CA5578
:1059C000F8BD00BF345D050838B503680D460446D0
:1059D0005B6F98472B0720461BBF6B001822D4F83B
:1059E000205303F01E031FBF43EAD5118B1E02FB99
:1059F00003439D8D23689B6F9847284638BD000060
:105A00000368F7B50E465B6F0546984736F08F077B
:105A100001D1320706D10023174918481A460093CE
:105A200001F0CAFE7400182304F01E0444EAD614E0
:105A3000023C03FB045494F83030DB0709D42846B9
:105A4000FFF7E4FE80B140F28C520D490D4801F0A1
:105A500071FC94F831303BB1D5F8EC023146036863
:105A6000DB6E984784F831702B6828469B6F03B033
:105A7000BDE8F040184700BF135B0508040115801E
:105A8000F95A0508805C0508036873B50E465B6F1C
:105A90000446984716F0700F01D1310706D1002354
:105AA0001A491B481A46009301F086FE7500182318
:105AB00005F01E0545EAD615023D03FB054595F8A0
:105AC0003030DA0709D42046FFF7A0FEB0B140F22B
:105AD000CC421049104801F02DFC43F0020331463E
